:020000040800F2
:100000002023002085050008AD520008AF520008EB
:10001000B3520008B7520008BB52000800000000AD
:10002000000000000000000000000000C1520008B5
:10003000BF520008000000005F100008C552000811
:10004000E7520008E9520008EB520008ED520008A0
:10005000EF520008F1520008F3520008F552000870
:10006000F7520008F9520008FB520008FD52000840
:10007000FF5200080153000803530008055300080D
:1000800007530008095300080B5300080D530008DC
:100090000F530008115300081353000815530008AC
:1000A0001753000819530008255300082753000868
:1000B000295300082B5300082D5300082F53000824
:1000C00031530008335300083553000837530008F4
:1000D000395300083B5300083D5300083F530008C4
:1000E0004153000843530008455300084753000894
:1000F000495300084B5300084D5300084F53000864
:100100005153000853530008555300085753000833
:10011000595300085B5300085D5300085F53000803
:1001200061530008635300086553000867530008D3
:1001300000F002F800F041F80AA090E8000C8244B8
:100140008344AAF10107DA4501D100F036F8AFF295
:10015000090EBAE80F0013F0010F18BFFB1A43F0A5
:10016000010318470870000028700000103A24BFEF
:1001700078C878C1FAD8520724BF30C830C144BF0C
:1001800004680C607047000000230024002500264E
:10019000103A28BF78C1FBD8520728BF30C148BFEA
:1001A0000B607047642906F02F85002070471FB54B
:1001B00006F00FFF1FBD10B510BD06F0CDFE1146B5
:1001C000FFF7F5FF00F0A6F806F0EBFE03B4FFF72B
:1001D000F2FF03BC06F0F6FE86B0AB4903C9CDE9D9
:1001E000040100F05CFA00F050FA00F081FC22E01B
:1001F00000200490059004A800F0E3FB9DF8163061
:100200009DF815209DF814108DE80E009DF8133010
:100210009DF812209DA1A44806F0BAFC00F035FA22
:10022000A14A0021012000F07EFA00230122194694
:10023000184603F0FBFFDBE701E0FFF7CDFFFCE72B
:1002400000F05EFE01F0D8FC0223984A0021984895
:1002500003F09AFC4FF48071964804F0A5FF4FF428
:100260000071954804F0A0FF4FF48071924804F0AB
:100270009BFF8021904804F097FF40218E4804F0B6
:1002800093FF4FF400418D4804F08EFF4FF48041FE
:100290008A4804F089FF4FF48071864804F084FF97
:1002A0004FF40051854804F07FFF4FF4805183489C
:1002B00004F07AFF4FF40061804804F075FF4FF4BA
:1002C00080617E4804F070FF4FF400717B4804F0B9
:1002D0006BFF4FF48071794804F066FF4FF40041E2
:1002E000774804F061FF4FF48041754804F05CFFEB
:1002F0004FF40051724804F057FF4FF4805170489A
:1003000004F052FF05E00A2003F060FFFF2003F035
:10031000DCFEF8E708B50120009001F06EFB6946AD
:10032000032002F0BBFB67490860002003F09CF942
:10033000654908600123654A0021654803F024FCF3
:1003400001F042FC4FF480715A4804F02DFF4FF445
:100350000071594804F028FF4FF48071564804F0AA
:1003600023FF8021544804F01FFF4021524804F02D
:100370001BFF4FF40041514804F016FF4FF4804139
:100380004E4804F011FF4FF480714A4804F00CFF0E
:100390004FF40051494804F007FF4FF4805147489B
:1003A00004F002FF4FF40061444804F0FDFE4FF4F6
:1003B0008061424804F0F8FE4FF400713F4804F0B9
:1003C000F3FE4FF480713D4804F0EEFE4FF400411F
:1003D0003B4804F0E9FE4FF48041394804F0E4FE64
:1003E0004FF40051364804F0DFFE4FF4805134489A
:1003F00004F0DAFE002008BD00F051F900F045F9E4
:1004000025E06F220021072000F0BAF96B220021BD
:10041000082000F0B5F919E000F037F92DA201210C
:10042000002000F080F9002301221946184603F04D
:10043000FDFE00F02AF92CA20121002000F073F942
:10044000002301221946184603F0F0FEE4E7D8E73E
:10045000002400F024F900F018F900F047FC08210E
:100460002D2000F0DCFB082000F01CFC0446224696
:1004700021A1244806F08CFB224A0021012000F033
:1004800052F900BFFEE70000E06F0008253032643B
:100490002D2530326420253032643A253032643ADA
:1004A000253032640000000074000020C0030020EA
:1004B000390200080008014000100140001401400A
:1004C000000C014000000020040000203002002049
:1004D0004102000848656C6C6F2C204865736F6E94
:1004E000676875610000000048656C6C6F2C2048DF
:1004F000656C6968756100004920526561643A2540
:10050000640000009400002030BF704720BF704797
:1005100040BF7047BFF36F8F7047BFF34F8F704777
:10052000BFF35F8F704701DF7047EFF314807047B0
:1005300080F31488BFF36F8F7047EFF30980704723
:1005400080F309887047EFF30880704780F30888CC
:10055000704762B6704772B67047EFF3108070470D
:1005600071B6704761B67047EFF31380704780F340
:1005700011887047EFF31280704740BA704700BA95
:10058000704700000348004703480449044A054BEC
:100590007047000031010008201B002020230020AC
:1005A000201F0020201F002010B5002401228021E0
:1005B000814804F0FDFD002204217F4804F0F8FD8D
:1005C000012202217C4804F0F3FD012211467A4801
:1005D00004F0EEFD8021784804F0CCFD044620466E
:1005E00010BD10B5044600220221734804F0E0FD5E
:1005F00001221146704804F0DBFDC4F30012102103
:100600006D4804F0D5FDC4F3401220216A4804F07F
:10061000CFFDC4F380124021674804F0C9FDE20910
:100620008021654804F0C4FD00220121624804F0E5
:10063000BFFD10BD70B505460C4600BFFFF7B4FF07
:100640000028FBD12DB1002204215B4804F0B0FD4D
:1006500004E001220421584804F0AAFDE0B2FFF7AB
:10066000C0FF2107080EFFF7BCFF70BD10B50446A0
:100670002CB101220821504804F09AFD04E0002228
:1006800008214D4804F094FD10BD10B50121084625
:10069000FFF7D0FF2021494806F092FB10BD10B5AE
:1006A00000220121444804F083FD00220221424837
:1006B00004F07EFD002204213F4804F079FD012270
:1006C00008213D4804F074FD002210213A4804F04E
:1006D0006FFD00222021384804F06AFD00224021ED
:1006E000354804F065FD00228021334804F060FDA8
:1006F00033210120FFF79EFF32210120FFF79AFFEF
:1007000028210120FFF796FF0C210120FFF792FF1F
:1007100001210846FFF78EFF06210120FFF78AFF1F
:10072000FFF7B3FF10BD2DE9F04105460E46144614
:10073000224800EB0610471903E0641C7F1C681C6C
:10074000C5B2207818B1387821788842F5D0207861
:1007500008B9BDE8F0810EB9802000E0C020411941
:100760000120FFF767FF06E021780020FFF762FF16
:1007700020783870641C20780028F5D100BFE8E7A5
:1007800070B505460C46164605EB04100B49085C8F
:10079000B0420FD00CB9802000E0C02041190120E8
:1007A000FFF748FF31460020FFF744FF05EB041038
:1007B00002490E5470BD000000080140C40300202F
:1007C00070B504460E4601220221D84804F0F0FC20
:1007D00004F0FE04002513E004F001024FF48061F0
:1007E000D24804F0E5FC01221146D04804F0E0FCB8
:1007F00000220121CD4804F0DBFC6410681CC5B266
:10080000082DE9DB002513E006F001024FF48061BA
:10081000C64804F0CDFC01221146C44804F0C8FCCF
:1008200000220121C14804F0C3FC7610681CC5B247
:10083000082DE9DB00220221BC4804F0B9FC70BDA0
:1008400070B50446002601220221B84804F0B0FC2D
:1008500044F00104002513E004F001024FF480612C
:10086000B24804F0A5FC01221146B04804F0A0FCF7
:1008700000220121AD4804F09BFC6410681CC5B245
:10088000082DE9DB002514E076104FF48061A748BD
:1008900004F070FC08B146F0800601221146A3481E
:1008A00004F086FC00220121A04804F081FC681CB1
:1008B000C5B2082DE8DB002202219C4804F078FC38
:1008C000304670BD70B5044600218E20FFF778FFDA
:1008D00080210846FFF774FF60780A2190FBF1F24F
:1008E00001FB12010A2290FBF2F001EB0010C5B2ED
:1008F00029468C20FFF764FFA0780A2190FBF1F2D3
:1009000001FB12010A2290FBF2F001EB0010C5B2CC
:1009100029468820FFF754FFE0780A2190FBF1F286
:1009200001FB12010A2290FBF2F001EB0010C5B2AC
:1009300029468620FFF744FF20790A2190FBF1F237
:1009400001FB12010A2290FBF2F001EB0010C5B28C
:1009500029468420FFF734FF60790A2190FBF1F2E9
:1009600001FB12010A2290FBF2F001EB0010C5B26C
:1009700029468220FFF724FFA0790A2190FBF1F29B
:1009800001FB12010A2290FBF2F001EB0010C5B24C
:1009900029468020FFF714FFE0790A2190FBF1F24D
:1009A00001FB12010A2290FBF2F001EB0010C5B22C
:1009B00029468A20FFF704FF80218E20FFF700FFE1
:1009C00070BD70B505468C20FFF73AFF04462046FF
:1009D000E21704EB12721211A4EB02122146E31784
:1009E00004EB13731B1103EB830302EB43026A70E6
:1009F0008820FFF725FF04462046E21704EB127219
:100A00001211A4EB02122146E31704EB13731B111E
:100A100003EB830302EB4302AA708620FFF710FF6B
:100A200004462046E21704EB12721211A4EB0212E4
:100A30002146E31704EB13731B1103EB830302EB53
:100A40004302EA708420FFF7FBFE04462046E217CB
:100A500004EB12721211A4EB02122146E31704EB0D
:100A600013731B1103EB830302EB43022A718220F1
:100A7000FFF7E6FE04462046E21704EB127212115D
:100A8000A4EB02122146E31704EB13731B1103EBD3
:100A9000830302EB43026A718020FFF7D1FE00F06E
:100AA0007F042046E21704EB12721211A4EB02122B
:100AB0002146E31704EB13731B1103EB830302EBD3
:100AC0004302AA718A20FFF7BBFE04462046E217C4
:100AD00004EB12721211A4EB02122146E31704EB8D
:100AE00013731B1103EB830302EB4302EA7170BD26
:100AF00008B540F20340ADF8000014208DF8030063
:100B000003208DF802006946084804F0A3FA002289
:100B10000221064804F04CFB00220121034804F0A6
:100B200047FB00218020FFF74BFE08BD000C014071
:100B300010B50446A3B200221146104603F076FB1E
:100B400010BD10B501228021754804F031FB01224F
:100B50004021734804F02CFB00228021704804F0EF
:100B600027FB002240216E4804F022FB10BD10B587
:100B7000002240216A4804F01BFB002280216848C3
:100B800004F016FB01224021654804F011FB01220C
:100B90008021634804F00CFB10BD10B501228021B8
:100BA0005F4804F005FB012240215D4804F000FB92
:100BB000002240215A4804F0FBFA10BD10B5012272
:100BC0008021574804F0F4FA01224021544804F0EF
:100BD000EFFA8021524804F0CDFA04460022402169
:100BE0004F4804F0E5FA204610BD70B504460825CC
:100BF00012E0E20980214A4804F0DAFA0122402199
:100C0000474804F0D5FA00224021454804F0D0FAC4
:100C10006006040E681EC5B2002DEAD170BD70B525
:100C200005460C46FFF78DFFA020FFF7DEFFFFF71C
:100C3000C5FF200AFFF7D9FFFFF7C0FFE0B2FFF7BB
:100C4000D4FFFFF7BBFF2846FFF7CFFFFFF7B6FF44
:100C5000FFF78DFF0A20FFF76BFF70BD70B5002412
:100C600008251BE0012240212D4804F0A1FA0120B3
:100C7000FFF75EFF6006040E8021294804F07AFA2F
:100C800004430120FFF754FF00224021244804F0D0
:100C90008FFA0120FFF74CFF681EC5B2002DE1D18D
:100CA000204670BD70B504460025FFF74AFFA0201E
:100CB000FFF79BFFFFF782FF200AFFF796FFFFF782
:100CC0007DFFE0B2FFF791FFFFF778FFFFF739FFF5
:100CD000A120FFF78AFFFFF771FFFFF7BFFF05466F
:100CE000FFF75BFFFFF743FF284670BD08B5C02044
:100CF000ADF8000014208DF8030003208DF80200E9
:100D00006946074804F0A6F901228021044804F04E
:100D10004FFA01228021024804F04AFA08BD00007F
:100D2000000C01400EB50121C80204F0BAFEB5481E
:100D300004F088FF4720ADF800000020ADF8020065
:100D400043F69820ADF804000020ADF806008DF8B9
:100D500008006946AB4804F0E0FF0121A94805F00E
:100D6000FEFC01221146A74805F057FA0121A548CB
:100D700005F038FA0EBD10B586B001A804F024FEC7
:100D800064210298B0FBF1F4204604F00DFF04202A
:100D900004F0F6FE012004F00BFF012004F023FF15
:100DA00006B010BD08B54FF4E06004F02CFB27201E
:100DB0008DF8000000208DF8010001208DF8020060
:100DC0008DF80300684604F023FB19208DF800001D
:100DD00000208DF8010002208DF8020001208DF81E
:100DE0000300684604F014FB26208DF80000002064
:100DF0008DF8010003208DF8020001208DF803001A
:100E0000684604F005FB1C208DF8000000208DF8DA
:100E1000010004208DF8020001208DF803006846CF
:100E200004F0F6FA00208DF800008DF8010005208E
:100E30008DF8020001208DF80300684604F0E8FAFE
:100E400008BD08B501217C2004F02BFE01216E486D
:100E500004F0CEF90121042004F023FE7F20ADF838
:100E6000000010208DF8030003208DF80200694671
:100E7000664804F0EFF88020ADF8000014208DF8EB
:100E8000030003208DF802006946604804F0E2F890
:100E900008BD10B504F098FC4FF4803004F0B3FCAA
:100EA00004F0F0FC5A49087008460078012826D161
:100EB000102003F0E3FD022003F0CAFD002004F03F
:100EC0002AFD002004F039FD4FF4806004F02CFD71
:100ED0004FF4E0114FF4803004F000FD012004F0E5
:100EE00009FD00BF392004F0B1FC0028FAD002202F
:100EF00004F003FD00BF04F009FD0828FBD110BD7C
:100F000010B5FFF7C6FFFFF79CFFFFF74BFFFFF79A
:100F100032FFFFF707FF10BD10B50121C80204F032
:100F2000CDFD4FF4C07005F0F8FD412005F000FE46
:100F3000502005F013FE05F01AFE05F006FE10BD68
:100F400000B587B00121880304F0ABFD0020ADF8A7
:100F50000400ADF806004FF40070ADF80800002062
:100F6000ADF80A0001A92B4805F0B0FC4FF4E130C0
:100F700003900020ADF81000ADF81200ADF8140099
:100F8000ADF818000C20ADF8160003A9214805F0B3
:100F900046FC40F225511F4805F07AFD012240F23F
:100FA00025511C4805F0B5FC01211A4805F0A5FCA7
:100FB00007B000BD1FB50121C80404F07FFD4FF448
:100FC000E13000900020ADF80400ADF80600ADF867
:100FD0000800ADF80C000C20ADF80A0069460E4878
:100FE00005F01DFC40F225510B4805F051FD012292
:100FF00040F22551084805F08CFC0121064805F017
:101000007CFC1FBD002C01400004300000080140A2
:101010000900002000380140004C0040EFF3108030
:1010200072B6704780F3108870471D484FF0FF017B
:101030000170002080F309881A48012101701A48C4
:101040004FF08051016062B6FEE717484FF08051C3
:101050000160704714484FF080510160704772B6CC
:10106000EFF3098028B1203880E8F00F0F490968B4
:10107000086000B50E4880475DF804EB0D480E4946
:101080000A78027009480D490A680260106890E801
:10109000F00F203080F309884EF0040E62B67047DE
:1010A00022ED00E03200002004ED00E038000020D6
:1010B0006D110008270000202800002040000020BB
:1010C0000020334908807047704770477047704769
:1010D000704770B5044610464FF080750560051FD7
:1010E00028462C606FF00106051F28462E604FF041
:1010F0001236051F28462E604FF00336051F28467E
:101100002E604FF00236051F28462E607610051F10
:1011100028462E60051F284629604FF01136051F0E
:1011200028462E604FF01036051F28462E604FF0DF
:101130000936051F28462E604FF00836051F284641
:101140002E604FF00736051F28462E604FF00636FA
:10115000051F28462E604FF00536051F28462E60D5
:101160004FF00436051F28462E6070BD704770474B
:1011700010B507480088401C0549088008460088CB
:101180000A2803DB0020088003F08AFB10BD000062
:101190000A000020174818481848194819481A48E2
:1011A0001A481B481B481C481C481D481D481E481F
:1011B0001E481F481F4820482048214821482248EF
:1011C00022482348234824482448254825482648BF
:1011D00026482748274828482848294829482A488F
:1011E0002A482B482B482C482C482D482D4800BF16
:1011F00070470000E86F0008EC6F0008F06F00080F
:10120000F26F0008F46F0008F66F0008F86F00082E
:10121000FA6F0008FC6F0008FE6F000800700008FD
:1012200002700008047000080670000808700008CA
:101230000A7000080C7000080E700008107000089A
:10124000127000081470000816700008187000086A
:101250001A7000081C7000081E700008207000083A
:10126000227000082470000826700008287000080A
:101270002A7000082C7000082E70000830700008DA
:1012800032700008347000083670000838700008AA
:101290003A7000083C7000083E700008407000087A
:1012A00042700008447000080246002005E011F872
:1012B000013B02F8013B431CD8B20B78002BF6D15E
:1012C000137070472DE9F04105460E46144600277D
:1012D000FC480078002804DD112020700020BDE8C3
:1012E000F0812878012808D0022807D0032802D0EE
:1012F000042804D100E000BF00BF00BF03E00120CC
:1013000020700020EBE700BFFFF788FE074605F1DD
:1013100013013046FFF7C8FF80463846FFF782FECC
:10132000002020704046DAE70146002002E0491C18
:10133000421CD0B20A78002AF9D170472DE9F04159
:1013400005460F4614464FF00008DE480078002896
:1013500003DD12202070BDE8F0812878012808D034
:10136000022807D0032802D0042804D100E000BFDF
:1013700000BF00BF02E001202070ECE700BFFFF7D4
:101380004DFE80463846FFF7CFFF06460F2E05DD9F
:101390004046FFF747FE0B202070DCE7394605F199
:1013A0001300FFF781FF4046FFF73CFE002020704E
:1013B00000BFD0E7F0B5024612F8344F9578567862
:1013C000A2F134020B4618680FE000F10B073F5DF5
:1013D000B74300F10B0C0CF8047067463F5D17B97A
:1013E000877AAF4387721B1D18680028EDD1F0BDC6
:1013F000B549B64A1278885CB549095CB24A515C75
:1014000001EBC001B34A1170704710B50024FFF71B
:1014100005FE0446AB480078F0B9AF480078D8B96B
:10142000FFF7E6FFAB480078AC490978884213D053
:10143000AB48A849097850F82100AA490860084635
:101440000068806B401C09688863A7480068401CDE
:10145000A5490860FFF7F9FD2046FFF7E3FD10BD41
:1014600070B501460024A14D2D68EC619F4C2468A5
:1014700021620B4618681BE09C4C246894F8345099
:1014800000F10B04645D994D2D6895F835502C439F
:10149000964D2D6895F8346000F10B05AC55847AB3
:1014A000924D2D6895F836502C4384721B1D186898
:1014B0000028E1D18D4C246894F83420844CA45C3D
:1014C0008A4D2D6895F83550AC43814DAC542C466F
:1014D000A45C44B9854C246894F836507B4C24783D
:1014E000AC437A4D2C7070BD2DE9FF4F83B081461F
:1014F0000E461546DDF84080002000903060CA4658
:10150000DAF8004018E02078062807D2DFE800F07B
:101510000604050307080AE009E008E000BF00BF71
:10152000012088F80000002007B0BDE8F08F00BF60
:101530000AF1040ADAF80040002CE4D1614800788E
:10154000002804DD022088F800000020ECE7624853
:101550000078002804DD0D2088F800000020E3E773
:10156000FFF75CFD00900020029083460190CA4680
:10157000DAF800405FE0207806284BD2DFE800F080
:101580004A182B034B4C208900280CDD2089401E73
:10159000208110C601200290002001C50BF101003E
:1015A0001FFA80FB03E0019840F0010001903DE04C
:1015B000606858B1606801C50020606010C60120F5
:1015C00002900BF101001FFA80FB03E0019840F04C
:1015D000020001902AE06768F88A002815DD396961
:1015E000081D3861086801C5B9683869884201D1A9
:1015F00078683861F88A401EF88210C6012002908F
:101600000BF101001FFA80FB03E0019840F0040099
:1016100001900BE000BF00BF0098FFF703FD002022
:101620003060012088F8000058467DE700BF0AF1CD
:10163000040ADAF80040002C9DD10298012809D153
:10164000002030600098FFF7EDFC002088F80000D3
:10165000584669E72548006890F83000019941F044
:10166000800108432149096881F8300000201F49A2
:10167000096881F831001D4906980968C8854846FF
:10168000FFF7EEFE0098FFF7CDFCFFF7BEFEFFF779
:10169000C5FC00901548006890F8310020B1012881
:1016A00032D002282FD100E000BF10480068C46982
:1016B000F4B110C6002030600BF101001FFA80FB6E
:1016C00020E00000250000204670000829000020CE
:1016D0002A000020280000202600002027000020EB
:1016E000400B0020400000200C00002038000020AB
:1016F0000120FF49096881F831004946FC4800682B
:10170000FFF758FE06E000BF4946F9480068FFF7BA
:1017100051FE00BF00BFF648006890F8310020B1CC
:1017200001282BD0022828D121E0207806280DD2CC
:10173000DFE800F00C0607030D0E002001C511E0E4
:1017400000BFEB480068406A01C50BE000BF00BF66
:101750000098FFF767FC00203060012088F8000047
:101760005846E1E600BF002088F800000CE00020A9
:1017700001C50E2088F8000006E000BF002001C56A
:101780000A2088F8000000BF00BF0020D84909687F
:1017900081F83000D649096881F83100D4490968D8
:1017A000C861D34909680862D1490968486200984C
:1017B000FFF738FC5846B7E67CB5002514E06946CB
:1017C000284602F040FC064666B9CA4850F8254053
:1017D00044B1012C06D0D4E9020100EB8100606421
:1017E0000198A064681CC5B23F2DE8DD7CBD0024D3
:1017F00002E0142002F0EAFCBF4800780028F8D08C
:10180000BE4800686421B0FBF1F0BC49086008469E
:10181000006828B90020BA490870FF2002F055FC82
:1018200000BFFFF7FBFB0446B6480068B6490860F6
:101830000020B44908602046FFF7F4FBB248006876
:10184000AE490968B0FBF1F0C0F16400AC49087022
:10185000FFF73EFCFFF7B0FF0A2002F0B7FCE0E71D
:1018600000B587B0032300228021A848CDE90323D7
:10187000CDE901014FF6FE7300933E2300F5FE72A1
:101880000021AFF2950002F0D6F906AAA0A13E20F1
:1018900002F047FB07B000BD002400BFFFF7BEFB0E
:1018A000044698480068401C964908602046FFF7A7
:1018B000B9FBFFF70CFCF1E700B587B0032300226A
:1018C00080219748CDE90323CDE901014FF6FF734D
:1018D00000933F2300F5FE720021AFF2430002F0B7
:1018E000AAF906AA8FA13F2002F01BFB07B000BD9A
:1018F00004E0002200F8012B4A1E91B20029F8DC16
:10190000704730B54FF434718A48FFF7F1FF894BC7
:1019100003F1240500240AE0002018705D603F20D8
:10192000D8740021197524332435601C84B2132C1B
:10193000F2DB0020187058603F20D8740021197520
:101940007C487D49086030BD30B54FF4FD617B486F
:10195000FFF7CEFF4FF480716648FFF7C9FF774B62
:1019600003F15C0500240AE05D613F2083F84C0030
:1019700000214D20C1545C335C35601CC4B2152C71
:10198000F2D3002058613F2083F84C0000214D2005
:10199000C15400206A49086068486A49086030BD3F
:1019A0000022694B1A706949002004E0002201F806
:1019B000012B421CD0B20828F8DB0022644B1A70BD
:1019C000644B1A70644B1A60494B1A6070470020D0
:1019D000624908606249087062490870624908708B
:1019E00062490870624908604649086046490860D3
:1019F0004249086040490870704710B5FFF760FB26
:101A0000FFF7E5FFFFF7CCFFFFF79EFFFFF779FF3A
:101A100000F0D8FE00F0D4FF01F0F4FDFFF74CFF1A
:101A2000FFF71EFF02F098FFFFF74EFBFFF7B2FB38
:101A300010BD4E480078012808D149480078FF2899
:101A400004D247480078401C45490870704710B5DB
:101A5000002446480078012830D1FFF7DFFA044619
:101A60003F480078002804DD3D480078401E3C498E
:101A700008703B480078F0B93A480078D8B9FFF7C9
:101A8000B7FC3448007832490978884213D01948A5
:101A90003049097850F821002F490860084600684D
:101AA000806B401C0968886331480068401C3049DD
:101AB0000860FFF7CFFA2046FFF7B4FA10BD10B563
:101AC00000242A480078012811D1FFF7A7FA04461C
:101AD0002348007840B923480078FF2804D22148E1
:101AE0000078401C1F4908702046FFF79BFA10BD84
:101AF00038000020400B0020240000201C000020A3
:101B000018000020340000202000002040070020A2
:101B100075432F4F532D49492053746174000000C1
:101B20004009002075432F4F532D49492049646CCB
:101B300065000000E403002010000020400C00209D
:101B4000440000203C000020290000202A00002042
:101B50002700002028000020400000205400002022
:101B60002500002026000020330000203200002045
:101B70000C00002010B50024FF480078012822D175
:101B8000FFF74CFA0446FD480078002818DDFB48B2
:101B90000078401EF94908700846007860B9F84896
:101BA000007828B92046FFF73DFAFFF72EFC0AE03F
:101BB0002046FFF737FA06E02046FFF733FA02E047
:101BC0002046FFF72FFA10BD10B5EB48007890B90A
:101BD000FFF70EFCEB480078EB490870EB48E94949
:101BE000097850F82100EA49086008460068E94988
:101BF0000860FFF71AFA10BD10B50024022002F0A9
:101C0000E5FAFFF70BFA04460020E3490860204696
:101C1000FFF708FA0A2002F0D9FAFFF7FFF90446A5
:101C2000DD480068DD4908600120DD490870204674
:101C3000FFF7F8F910BD70B50026FFF799FAFFF726
:101C4000EDF90646D7480068401CD6490860304682
:101C5000FFF7E8F9C8480078012858D1D248007841
:101C600020B1012804D0022809D103E001250BE0AE
:101C7000002509E001250120CB49087004E0012579
:101C80000020C949087000BF00BF05B970BDC74832
:101C9000046838E0FFF7C2F90646E08D78B3E08DBE
:101CA000401E0004000CE08529D194F8300010F0AB
:101CB000370F09D014F8300F20F0370020700120C2
:101CC0006070A4F1300402E0002084F8310094F840
:101CD000300010F0080F12D104F13404A078B44998
:101CE000097840EA0100B24908702078B149085CDF
:101CF000617840EA010014F83419AE4A505464691E
:101D00003046FFF78FF994F832003F28C2D100BF68
:101D1000BCE74FF48F707047704710B590F83420CF
:101D200001F10B039B5C90F83540A34301F10B04D8
:101D3000A35423469B5C23B98B7A90F83640A34387
:101D40008B7210BD2DE9F04F05460F46904699461F
:101D5000A87A99490E5C05F10B00805D11F800B07E
:101D60000BEBC60000F0FF0A884850F82A4000201C
:101D700004F1240460812760207B20EA080020739E
:101D800084F80D90207BA4F1240410F0080F0DD1ED
:101D900094F83600864909780843854908708548D3
:101DA000805D94F8351008438249885529462046BD
:101DB000FFF7B3FF206A20B12046216AFFF7FAFA45
:101DC000E5615046BDE8F08F10B5724A1268D061E7
:101DD000704A126892F8343000F10B02D25C6D4BFD
:101DE0001B6893F835301A436A4B1B6893F83440EC
:101DF00000F10B031A55827A664B1B6893F8363054
:101E00001A438272634A126892F83410694A525C2B
:101E1000604B1B6893F835309A43664B5A541A4608
:101E2000525C42B95B4A126892F83630604A1278C6
:101E30009A435F4B1A7010BD0023837200F10B01AF
:101E4000002204E0002301F8013B531CDAB2082A07
:101E5000F8DB704705E011F8013B00F8013B531E29
:101E60009AB2002AF7DC70472DE9F84F05460E4676
:101E700017469846DDE90BABDDF82890002000906E
:101E8000FFF7CCF800904D480468ECB304F1180457
:101E900054F8040C494908600098FFF7C3F844F867
:101EA000186CA576002020766076E08244F814ACA9
:101EB00044F80C9C44F8107C24F808BC24F8068CE8
:101EC000E077E810207705F00700E076217F012019
:101ED0008840A077E17E0120884060770020606024
:101EE000A0602061E0602062A0626062E062206326
:101EF0003F2084F83400A4F118044FF000014FF0A3
:101F00004D000155204600E05CE0FFF730F9204627
:101F1000FFF7DBF8FFF782F800901C4840F82540F7
:101F20002248006860610020A0612048006810B16C
:101F30001E48006884611D48046004F13404A078E0
:101F40001B49097840EA01001949087020781949AD
:101F5000085C617840EA010014F83419154A5054BD
:101F60001748007800F10100154908700098FFF744
:101F700059F80020BDE8F88F32000020260000202C
:101F8000250000202800002027000020400B002012
:101F90004000002038000020340000201C000020F9
:101FA00024000020540000204800002044000020AD
:101FB000290000202A000020467000083C00002074
:101FC000330000200098FFF72DF84220BDE8F88F7D
:101FD0002DE9F05F05460F4691461E464FF0000B77
:101FE0002878052804D0012030700020BDE8F09F3B
:101FF00009F0800ABAF1000F04D029F080094FF0EF
:10200000010801E04FF0000800203070FFF706F8EB
:102010008346B9F1000F2CD0B9F1010F3BD0B9F1D3
:10202000020F03D0B9F1030F46D111E0288900EA6D
:102030000704BC4206D1B8F1010F05D12889A0439D
:10204000288101E0702030705846FEF7EBFF3AE03F
:10205000288900EA070434B1B8F1010F05D12889B5
:10206000A043288101E0702030705846FEF7DAFF67
:1020700029E0288927EA0004BC4206D1B8F1010F03
:1020800005D128892043288101E07020307058460E
:10209000FEF7C8FF17E0288927EA000434B1B8F139
:1020A000010F05D128892043288101E0702030707C
:1020B0005846FEF7B7FF06E05846FEF7B3FF002488
:1020C0006F20307000BF00BF20468FE72DE9F04140
:1020D00006460D460027FB480078002804DD102046
:1020E00028700020BDE8F081FEF798FF0746F6480B
:1020F000046894B100684068F349086005202070C6
:102100002681002060603F20A0720021E1723846E5
:10211000FEF788FF0020287004E03846FEF782FFB3
:10212000722028702046DDE730B501464A6808680D
:102130002AB9CC68606028B10025456002E01060D3
:1021400000B142608B6800259D6230BDF0B5064647
:102150000F46B468002004F12C04608027802079A9
:1021600020F0200020714FF0000060712079A4F170
:102170002C04A8B904F13404A078D449097840EAC1
:102180000100D24908702078D149085C617840EAA2
:10219000010014F83419CE4A50544FF0010500E004
:1021A00000253046FFF7C0FF2846F0BD2DE9F04777
:1021B0000446894615464FF0000AC24800780028B8
:1021C00004DD0F2028702046BDE8F0872078052820
:1021D00003D0012028702046F6E7FEF71FFF824655
:1021E000606808B1012700E00027B9F1000F03D0B3
:1021F000B9F1010F40D11BE09FB93F20A07200212F
:10220000E17200202070B0480068606000202081EA
:10221000AD4804605046FEF705FF002028700026F8
:1022200005E05046FEF7FEFE4920287026462AE0CB
:10223000D4F8048005E000214046FFF787FFD8F876
:102240000080B8F1000FF6D13F20A0720021E172AA
:10225000002020709C4800686060002020819A481F
:1022600004605046FEF7DEFE012F01D1FFF7CDF8E6
:1022700000202870002606E05046FEF7D3FE072017
:102280002870264600BF00BF30469DE72DE9F0418B
:1022900005460E46144600278A480078002804DDCB
:1022A000112020700020BDE8F081FEF7B7FE074640
:1022B0002878052806D03846FEF7B4FE01202070A5
:1022C0000020F0E705F10A013046FEF7EDFF8046F9
:1022D0003846FEF7A7FE002020704046E3E72DE9D0
:1022E000F04105460F4614464FF000087548007847
:1022F000002803DD12202070BDE8F081FEF78EFE7D
:1023000080462878052805D04046FEF78BFE012040
:102310002070F1E73846FFF707F806460F2E05DD77
:102320004046FEF77FFE73202070E5E7394605F151
:102330000A00FEF7B9FF4046FEF774FE0020207049
:1023400000BFD9E7F0B51446059E624F3F6897F885
:10235000307047F02007DFF87CC1DCF800C08CF853
:1023600030700027DFF86CC1DCF800C08CF83170E9
:10237000584F3F68FE85574F3F68B9620C828B7497
:10238000544F3F688F6047680F6000274F60C860F8
:10239000456805B1696041604E4F3F6897F8342049
:1023A0004B4FBF5CDFF82CC1DCF800C09CF835C097
:1023B00027EA0C07DFF818C10CF802706746BF5C0B
:1023C0005FB9444F3F6897F836C0404F3F7827EADF
:1023D0000C07DFF8F8C08CF80070F0BD2DE9FF4F56
:1023E00087B005460F469146149E0020019035485F
:1023F0000078002805DD0220307000200BB0BDE819
:10240000F08F35480078002803DD0D203070002063
:10241000F4E72878052803D0012030700020EDE78C
:1024200009F0800ABAF1000F04D029F080094FF0BA
:10243000010801E04FF00008FEF7F0FD0190B9F14E
:10244000000F57D0B9F1010F77D0B9F1020F03D0C7
:10245000B9F1030F70D120E0288900EA0704BC42DB
:102460000FD1B8F1010F02D12889A0432881194862
:10247000006884850198FEF7D5FD00203070204665
:10248000BCE70A9B00934B463A4602A92846FFF751
:1024900059FF0198FEF7C6FD77E0288900EA070496
:1024A000E4B1B8F1010F02D12889A043288109487D
:1024B000006884850198FEF7B5FD00203070204645
:1024C0009CE70000250000201400002029000020C7
:1024D0002A00002038000020260000200A9B0093DC
:1024E0004B463A4602A92846FFF72CFF0198FEF713
:1024F00099FD4AE0288927EA0004BC420FD1B8F1CF
:10250000010F02D1288920432881BF4800688485B3
:102510000198FEF787FD0020307020466EE70A9B89
:1025200000934B463A4602A92846FFF70BFF019855
:10253000FEF778FD29E000E01FE0288927EA000483
:102540007CB1B8F1010F02D1288920432881AE481F
:10255000006884850198FEF765FD002030702046F4
:102560004CE70A9B00934B463A4602A92846FFF7E0
:10257000E9FE0198FEF756FD07E00198FEF752FDCF
:1025800000246F203070204638E700BFFEF73DFF83
:10259000FEF744FD01909C48006890F8310020B39C
:1025A0009948006890F831B000209749096881F88F
:1025B000310002A8FFF7B8FD00209349096881F8AF
:1025C00030000198FEF72EFD0024BBF1010F06D06C
:1025D000BBF1020F02D10E20307003E000BF0A20D1
:1025E000307000BF00BF204608E787480068848D30
:1025F000B8F1010F1ED1B9F1000F0ED0B9F1010FE2
:102600000CD0B9F1020F03D0B9F1030F0AD100E0E9
:1026100000BF2889A04328810BE000BF2889204300
:10262000288106E00198FEF7FDFC6F203070002045
:10263000E4E600BF0198FEF7F5FC0020307020466C
:10264000DCE670B50025FEF7E9FC05466E4800683B
:10265000848D2846FEF7E6FC204670BD2DE9FC5F20
:102660000446894692461E460020009020780528A0
:1026700004D0012030700020BDE8FC9FFEF7CEFCA6
:102680000090BAF1000F03D0BAF1010F0AD104E0B3
:10269000208920EA090020810BE0208940EA090016
:1026A000208106E00098FEF7BDFC7120307000200C
:1026B000E2E700BF4FF0000B656855E0A87C40B32F
:1026C000012838D0022802D0032844D111E0208903
:1026D000298A00EA0107288AB84209D139462846E2
:1026E000FFF734FD8046B8F1010F01D14FF0010B27
:1026F00038E02089298A00EA01074FB13946284687
:10270000FFF724FD8046B8F1010F01D14FF0010B16
:1027100028E0288A218920EA0107288AB84209D1BD
:1027200039462846FFF712FD8046B8F1010F01D166
:102730004FF0010B16E0288A218920EA01074FB1EA
:1027400039462846FFF702FD8046B8F1010F01D156
:102750004FF0010B06E00098FEF764FC6F2030702C
:10276000002089E700BF2D68002DA7D10098FEF753
:1027700059FCBBF1010F01D1FEF747FEFEF74EFCFD
:102780000090208901900098FEF74CFC00203070EA
:10279000019871E72DE9F04104460D4600272078A5
:1027A000052804D0012028700020BDE8F081FEF744
:1027B00035FC074626893846FEF734FC0020287091
:1027C0003046F2E770B58C211048FFF791F80F4CB6
:1027D00004F11C0600250AE00020207066603F20FE
:1027E000A0720021E1721C341C36681C85B2042DD5
:1027F000F2DB0020207060603F20A0720021E172B7
:1028000002480349086070BD38000020B40600206B
:10281000140000202DE9F84F05460F4690469A46D1
:1028200000200090FEF7FAFB0090764804680068EC
:1028300020B1744800684068724908600098FEF74B
:10284000F1FB2CB95A208AF800000020BDE8F88F6F
:102850002E4605EB08094FF0000B05E0C6F8009086
:102860004E46C1440BF1010B781E5845F6D80020A6
:102870003060256065602761E760C4F808808AF8E9
:1028800000002046E2E72DE9F04104460D4600270E
:10289000FEF7C4FB0746206968B16668306860606F
:1028A0002069401E20613846FEF7BCFB00202870DE
:1028B0003046BDE8F0813846FEF7B4FB5D20287055
:1028C0000020F6E72DE9F04105460E4614460027A4
:1028D0004D480078002804DD112020700020BDE85C
:1028E000F081FEF79BFB074605F114013046FEF729
:1028F000DBFC80463846FEF795FB00202070404602
:10290000EDE72DE9F04106460F4614464FF000086A
:102910003D480078002803DD12202070BDE8F081DA
:10292000FEF77CFB80463846FEF7FEFC05460F2D81
:1029300005DD4046FEF776FB63202070EEE7394662
:1029400006F11400FEF7B0FC4046FEF76BFB0020DA
:10295000207000BFE2E770B504460D460026FEF782
:102960005DFB0646D4E90310884204D33046FEF7E7
:1029700059FB5E2070BD6068286065602069401C5E
:1029800020613046FEF74EFB0020F3E770B50546A8
:102990000C460026FEF742FB064628682060686861
:1029A0006060A868A060E868E0602869206130463F
:1029B000FEF738FBD4E90301401A6061002070BDC6
:1029C00070B5B4211148FEF793FF104C00250DE0BF
:1029D000681C00EBC0000D4901EB800060603F20E7
:1029E0002075002161752434681C85B2042DEFDB4D
:1029F000002060603F202075002161750348014977
:102A0000086070BD4C000020250000202814002024
:102A10002DE9F04104460D4600272078042804D013
:102A2000012028700020BDE8F081FE4800780028D1
:102A300003DD022028700020F5E7FEF7EFFA0746D5
:102A4000208906122089C0B2FF2820D1208900F4F5
:102A50007F4020812089F449096891F832100843A9
:102A60002081F14800686060EF48006890F832000B
:102A7000B04205DC3846FEF7D5FA7820287004E02D
:102A80003846FEF7CFFA002028700120CBE7384601
:102A9000FEF7C8FA0020287000BFC4E72DE9F04116
:102AA00005460E460027DF480078002804DD102088
:102AB00030700020BDE8F081FEF7B0FA0746DB4831
:102AC00050F8250030B13846FEF7ACFA28203070B7
:102AD0000020EFE70120D54941F82500D4480468DB
:102AE0004CB9002041F825003846FEF79BFA042037
:102AF00030702046DEE7CE4800684068CC49086068
:102B00003846FEF78FFA04202070280240F0FF00BC
:102B10002081002060603F20E07400212175204664
:102B2000FFF78AF9002030702046C3E730B590F8EF
:102B30003420C04B9B5C90F83540A343BD4CA3545C
:102B400023469B5C33B990F83640BB4B1B78A343BC
:102B5000B94C237000F8321FC1F3C203837001F037
:102B60000703437084780123A34003714478012351
:102B7000A340C3700379B04C24782343AE4C237038
:102B80008378AC4CE35CC47823438478A0F13200B2
:102B9000A84D2B55A54B43F8210030BD2DE9F84F2A
:102BA00004468B461546002000902078042804D067
:102BB000012028702046BDE8F88F9A480078002848
:102BC00003DD0F2028702046F5E7FEF727FA009076
:102BD000A07A10B14FF0010801E04FF00008BBF1FE
:102BE000000F03D0BBF1010F5DD122E0B8F1000F5F
:102BF00018D13F20E07400212175208906120020A1
:102C00008A4941F8260020708948006860600020E9
:102C10002081874804600098FEF704FA002028709D
:102C2000002705E00098FEF7FDF9492028702746A7
:102C300040E020890612208900F0FF0AD4F80490B1
:102C4000B9F1000F07D099F83200B04203D15146D4
:102C50004846FFF76BFF05E0002310221946204687
:102C6000FFF770F8A07A0028F6D13F20E074002129
:102C700021752089061200206C4941F82600207039
:102C80006B480068606000202081694804600098FB
:102C9000FEF7C8F9B8F1010F01D1FEF7B6FB00202D
:102CA0002870002706E00098FEF7BCF9072028707E
:102CB000274600BF00BF38467DE72DE9F74F82B0B9
:102CC00005461746002001902878042804D00120EA
:102CD000387005B0BDE8F08F52480078002802DD5A
:102CE00002203870F5E755480078002802DD0D20F5
:102CF0003870EEE7FEF792F9019028894FEA202814
:102D00002889C0B2FF281FD1288900F47F4028817C
:102D100028894549096891F83210084328814248BA
:102D2000006868604048006890F83200404505DC63
:102D30000198FEF777F97820387004E00198FEF7E3
:102D400071F900203870C4E7288900F0FF0A6C6828
:102D500094F83200404573DD3348006890F8320043
:102D600050456DDA94F83490324810F8090094F820
:102D70003510084216D02F4810F8090094F8351085
:102D800088432C4901F80900084610F8090030B9B9
:102D900094F83610284800788843274908704FF087
:102DA000010B15E0E6698EB114F8341F06F10B0033
:102DB000405C6178884314F8342906F10B0188548B
:102DC00004D1B07A94F836108843B0724FF0000BFB
:102DD00004F8328F2078C010A070207800F007002F
:102DE0006070A178012088402071617801208840BE
:102DF000E070A4F13204BBF1010F22D104F13404DC
:102E0000A0780D49097840EA01000B490870207844
:102E10000849085C617840EA010014F83419054A51
:102E2000505423E02500002038000020400B0020F3
:102E3000100000202A000020290000202600002089
:102E400017E0E66996B1B07A04F13404A17840EA5B
:102E50000100B072217806F10B00405C617840EA15
:102E6000010014F8342906F10B018854714840F828
:102E700028407148006890F8300040F010006E491A
:102E8000096881F8300000206B49096881F8310039
:102E9000694903980968C8852846FEF795FF019897
:102EA000FEF7C0F8FEF7B1FAFEF7B8F801906248F5
:102EB000006890F8310020B1012809D0022806D11D
:102EC00002E0002038700BE00E20387008E000BFF0
:102ED000294659480068FEF720FF0A20387000BFD5
:102EE00000BF00205449096881F830005249096840
:102EF00081F8310050490968C8614F490968086282
:102F00000198FEF78FF800BFE3E62DE9F041044693
:102F100000274A480078002802DD0520BDE8F0813E
:102F20002078042801D00120F8E7FEF777F807465B
:102F3000208906122089C5B23F4960680968884225
:102F400004D03846FEF76EF86420E7E73A48006898
:102F500090F83200B04204D1294637480068FFF7A4
:102F6000E5FD0120334941F82600A07A08B300238B
:102F7000102219462046FEF7E5FE0546208900F49A
:102F80007F4020812089284320812A4850F825004D
:102F90006060B54206DC3846FEF744F8FEF735FAC5
:102FA0007820BBE73846FEF73DF8FEF72EFA002002
:102FB000B4E7208940F0FF0020810020606038469F
:102FC000FEF730F80020A9E72DE9F04705460C464A
:102FD0004FF0000919480078002802DD0620BDE8FE
:102FE000F0872878042801D00120F8E7FEF716F8CA
:102FF000814628890012E0722889A072A07AFF28F1
:1030000002D10120607201E000206072A87A207273
:1030100005F10B082646002705E018F8010B06F815
:10302000010B781CC7B2082FF7DB4846FDF7FAFF03
:103030000020D4E7400B00203800002025000020AD
:103040002DE9F04106460D464FF000083078022881
:1030500004D0012028700020BDE8F081FDF7DEFFDC
:1030600080467468E08A00280FDD2169081D206110
:103070000F68E08A401EE082A1682069884201D181
:10308000606820610020287002E01F20287000275F
:103090004046FDF7C7FF3846DEE72DE9F04106461A
:1030A0000F464FF00008FD480078002802DD0020A0
:1030B000BDE8F081FDF7B2FF8046F948046800687A
:1030C00020B1F74800684068F54908604046FDF7C0
:1030D000A9FF0CB3FDF7A2FF8046F2480568E5B1F1
:1030E00000680068EF4908604046FDF79BFF6E608E
:1030F00006EB8700A860EE602E61AF820020E882B8
:10310000022020700020208165603F20E0740021B3
:1031100021752046FEF790FE08E0E14800686060F7
:10312000DF4804604046FDF77DFF00242046BFE7EE
:103130002DE9F0470446894615464FF0000A2078ED
:10314000022804D0012028702046BDE8F087D3482B
:103150000078002803DD0F2028702046F5E7FDF7F2
:103160005DFF8246A07A10B14FF0010801E04FF0F8
:103170000008B9F1000F03D0B9F1010F4DD123E0E0
:10318000B8F1000F19D13F20E07400212175666865
:10319000C44800683060C348066000202070C04802
:1031A0000068606000202081BD4804605046FDF743
:1031B00039FF00202870002705E05046FDF732FF58
:1031C0004920287027462FE005E0002304221946F5
:1031D0002046FEF7B7FDA07A0028F6D13F20E07424
:1031E000002121756668AF4800683060AD48066010
:1031F00000202070AA480068606000202081A84854
:1032000004605046FDF70EFFB8F1010F01D1FEF743
:10321000FCF800202870002706E05046FDF702FF6A
:1032200007202870274600BF00BF38468DE770B5DD
:1032300005460026FDF7F2FE06466C686068E06011
:10324000606820610020E0823046FDF7EBFE002040
:1032500070BD2DE9F0470746884615464FF0000936
:103260003878022804D0012028700020BDE8F087BB
:103270008A480078002803DD022028700020F5E746
:1032800089480078002803DD0D2028700020EDE734
:10329000FDF7C4FE81467C68E08A002813DD2169C1
:1032A000081D20610E68E08A401EE082A168206946
:1032B000884201D1606820614846FDF7B3FE0020D6
:1032C00028703046D2E77948006890F8300040F026
:1032D00004007649096881F83000002073490968C4
:1032E00081F8310071480068A0F82E803846FEF75A
:1032F0006BFD4846FDF796FEFEF787F8FDF78EFE5C
:1033000081466A48006890F8310020B101280DD04C
:1033100002280AD105E065480068466A0020287046
:103320000DE000260E20287009E000BF39465F48F6
:103330000068FEF7F2FC00260A20287000BF00BFDC
:1033400000205A49096881F830005849096881F815
:10335000310056490968C8615449096808625349EF
:10336000096848624846FDF75DFE30467EE72DE974
:10337000F04104460F4615464FF000082078022819
:1033800004D0012028700020BDE8F081FDF746FE42
:103390008046A07A20B300267FB1012F0CD107E030
:1033A0000223042200212046FEF7CCFC701CC6B28A
:1033B000A07A0028F4D109E000BF022304220021F2
:1033C0002046FEF7BFFC701CC6B200BF00BF4046DF
:1033D000FDF728FEFEF719F80E2028703046D3E7D7
:1033E0004046FDF71FFE0020287000BFCCE72DE906
:1033F000F04105460E4600272878022802D0012019
:10340000BDE8F081FDF70AFE0746A87A60B1002307
:10341000042231462846FEF795FC3846FDF702FEA9
:10342000FDF7F3FF0020EBE76C68E08AA18A884291
:1034300004DB3846FDF7F6FD1E20E1E7E168081DD4
:10344000E0600E60E08A401CE082D4E9021088420D
:1034500001D16068E0603846FDF7E4FD0020CFE769
:103460002DE9F04105460E4600272878022802D0B3
:103470000120BDE8F081FDF7D1FD0746A87AB8B17B
:103480000023042231462846FEF75CFC3846FDF74F
:10349000C9FDFDF7BAFF0020EBE700002500002082
:1034A00010000020500000202600002038000020DE
:1034B0006C68E08AA18A884204DB3846FDF7B2FDD9
:1034C0001E20D6E761682069884201D1A06820618A
:1034D0002069001F206120690660E08A401CE082AC
:1034E0003846FDF79FFD0020C3E72DE9F041054672
:1034F0000F4616464FF000082878022802D0012017
:10350000BDE8F081FDF78AFD8046A87AE8B116F0A3
:10351000010F0AD005E00023042239462846FEF7B1
:1035200011FCA87A0028F6D105E0002304223946D0
:103530002846FEF707FC4046FDF774FD16F0040F21
:1035400001D1FDF762FF0020DAE76C68E08AA18A0A
:10355000884204DB4046FDF765FD1E20D0E716F0EB
:10356000020F0BD061682069884201D1A0682061F8
:103570002069001F20612069076009E0E168081DDB
:10358000E0600F60D4E90210884201D16068E06019
:10359000E08A401CE0824046FDF744FD0020AFE792
:1035A0002DE9F04705460C464FF0000A287802281E
:1035B00002D00120BDE8F087FDF730FD8246A87AF1
:1035C000207405F10B0804F10809002705E018F83C
:1035D000010B09F8010B781CC7B2082FF7DB6E68E6
:1035E000F08A002803DD30690068206001E00020D7
:1035F0002060F08AA080B08AE0805046FDF712FD7E
:103600000020D7E770B560210A48FEF771F9094C30
:1036100004F11806002504E0266018341836681CEA
:1036200085B2032DF8DB00202060024802490860C3
:1036300070BD0000DC1400205000002070B504466E
:1036400000262078032801D0002070BDFDF7E6FC9D
:1036500006462589002D02DD2089401E2081304646
:10366000FDF7E0FC2846F0E770B505460026DF4888
:103670000078002801DD002070BDFDF7CFFC064674
:10368000DB480468006820B1D94800684068D84920
:1036900008603046FDF7C6FC5CB103202070258130
:1036A000002060603F20E074002121752046FEF775
:1036B000C3FB2046E0E72DE9F0470446884615465F
:1036C0004FF000092078032804D0012028702046FC
:1036D000BDE8F087C5480078002803DD0F2028707A
:1036E0002046F5E7FDF79AFC8146A07A08B101274C
:1036F00000E00027B8F1000F03D0B8F1010F3ED170
:103700001BE09FB93F20E07400212175002020704C
:10371000B7480068606000202081B54804604846D2
:10372000FDF780FC00202870002605E04846FDF7E4
:1037300079FC49202870264628E005E00023012274
:1037400019462046FEF7FEFAA07A0028F6D13F205F
:10375000E0740021217500202070A5480068606099
:1037600000202081A24804604846FDF75BFC012F41
:1037700001D1FDF74AFE00202870002606E04846E9
:10378000FDF750FC07202870264600BF00BF3046DA
:103790009EE72DE9F04105460E461446002728789D
:1037A000032803D001202070BDE8F0818F48007805
:1037B000002802DD02202070F6E78E4800780028FD
:1037C00002DD0D202070EFE7FDF728FC0746288971
:1037D000002808DD2889401E28813846FDF722FC94
:1037E00000202070E0E78448006890F8300040F046
:1037F00001008149096881F8300000207E4909688C
:1038000081F831007C480068C6852846FEF7DCFA5E
:103810003846FDF707FCFDF7F8FDFDF7FFFB07460F
:103820007548006890F8310020B1012809D00228BD
:1038300006D102E0002020700BE00E20207008E08E
:1038400000BF29466C480068FEF767FA0A2020701E
:1038500000BF00BF00206849096881F83000664950
:10386000096881F8310064490968C86162490968DA
:1038700008623846FDF7D6FB00BF95E72DE9F04119
:1038800004460F4615464FF000082078032804D060
:10389000012028700020BDE8F081FDF7BFFB8046C5
:1038A000A07A20B300267FB1012F0CD107E00223BC
:1038B000012200212046FEF745FA701CC6B2A07A0C
:1038C0000028F4D109E000BF022301220021204694
:1038D000FEF738FA701CC6B200BF00BF4046FDF7C5
:1038E000A1FBFDF792FD0E2028703046D3E740463D
:1038F000FDF798FB0020287000BFCCE770B50446A8
:1039000000252078032801D0012070BDFDF786FB3B
:103910000546A07A60B10023012219462046FEF731
:1039200011FA2846FDF77EFBFDF76FFD0020ECE75E
:1039300020894FF6FF71884207D22089401C2081E0
:103940002846FDF76FFB0020DFE72846FDF76AFBFE
:103950003220DAE72DE9F04704460D464FF0000922
:103960002078032802D00120BDE8F087FDF756FB40
:103970008146A07AA87204F10B07AE1C4FF0000834
:1039800007E017F8010B06F8010B08F1010000F041
:10399000FF08B8F1080FF4DB208928804846FDF7BE
:1039A00041FB0020E0E72DE9F04104460E461546B4
:1039B00000272078032803D001202870BDE8F0817B
:1039C000FDF72CFB0746002028702089002801DD28
:1039D000268105E0A07A08B9268101E049202870F7
:1039E0003846FDF71FFB00BFE8E700002500002078
:1039F0001000002026000020380000202DE9F34FA1
:103A000085B0884600200190FDF708FB0190FF4833
:103A100050F8280030B10198FDF704FB282007B0CA
:103A2000BDE8F08F0598FF2804D1F948006890F8A8
:103A300032000590F549059851F8205025B90198B4
:103A4000FDF7F0FA2920EAE7012D04D10198FDF7EE
:103A5000E9FA4320E3E74FEAE80708F0070003909C
:103A60000120B84000F0FF0901210398814001F0D6
:103A7000FF0A0021E54A059842F82010104640F858
:103A8000285095F8346095F83600029095F835B0D6
:103A9000E048805D10EA0B0F1AD0DE48805D20EA16
:103AA0000B00DC4988550846805D28B9DA48007863
:103AB00002998843D8490870D748007840EA09003D
:103AC000D5490870D348C05D40EA0A00D149C855BD
:103AD000EC69D4B104F10B00805D20EA0B0004F125
:103AE0000B0188550846805D18B9A07A0299884371
:103AF000A072A07A40EA0900A07204F10B00C05D38
:103B000040EA0A0004F10B01C855286A30B3286A5C
:103B10000490049804681FE004F10B00805D20EA23
:103B20000B0004F10B0188550846805D18B9A07A96
:103B300002998843A072A07A40EA0900A07204F1B9
:103B40000B00C05D40EA0A0004F10B01C85504985F
:103B5000001D049004980468002CDDD185F83280A3
:103B600085F83470039885F8330085F8369085F829
:103B700035A00198FDF756FAA8480078012801D130
:103B8000FDF743FC00204AE72DE9FE4F06460F46AD
:103B900090461C464FF00009FDF740FA8146A048C8
:103BA0000078002805DD4846FDF73CFA3C20BDE8DA
:103BB000FE8F964850F8240058BB0120934941F8E5
:103BC00024004846FDF72EFA002342463946304687
:103BD000FDF77FFA82460023009301931A4651466F
:103BE00020460293FEF740F9054635B98B48007828
:103BF00001280CD1FDF709FC09E0FDF70FFA814619
:103C00000020824941F824004846FDF70BFA284677
:103C1000CDE74846FDF706FA2820C8E712F0010F65
:103C200008D012F0020F05D002E0491E002308C0A0
:103C30000029FAD170472DE9FF4F85B080468946AB
:103C400092461C46DDE912B6169F00200390FDF750
:103C5000E5F9039072480078002806DD0398FDF727
:103C6000E1F93C2009B0BDE8F08F684850F8240025
:103C700088BB0120654941F824000398FDF7D2F97B
:103C80003A4630461499FFF7C9FF3B46524649462B
:103C90004046FDF71EFA0490DDE914125B468DE8FC
:103CA0008600324620460499FEF7DEF8054635B90F
:103CB0005A48007801280CD1FDF7A7FB09E0FDF771
:103CC000ADF903900020514941F824000398FDF715
:103CD000A9F92846C6E7FFE70398FDF7A3F92820CE
:103CE000C0E72DE9F041054600274D48007800283F
:103CF00002DD4020BDE8F0813F2D01D13E20F9E7F3
:103D0000FDF78CF90746FF2D03D14148006890F874
:103D100032503E4850F8254024B93846FDF782F924
:103D20004320E7E7012C04D13846FDF77BF93D201D
:103D3000E0E714F8340F3749085C6178884321784C
:103D4000344A505414F834091146085C30B994F8D8
:103D500036103148007888432F490870E06918B15F
:103D60002046E169FDF7D9FF206A18B12046216A93
:103D7000FDF720FBA66A16B13046FEF7D5F9002004
:103D8000E08584F8300084F8310026480078FF2868
:103D900004D224480078401C224908703846FDF7B8
:103DA00041F9FDF7B9FFFDF739F907461D480078DD
:103DB000002804DD1B480078401E1A490870204680
:103DC000FDF784F918480078401E17490870002054
:103DD0000E4941F82500A06930B900206169886169
:103DE00012496069086005E0D4E905014861D4E939
:103DF000051088610E48006860610D4804603F202E
:103E000084F84C0000214D20015513E0400B0020A8
:103E1000380000202A000020290000203200002065
:103E20002500002026000020330000204400002050
:103E30003C0000203846FDF7F5F8DE480078012800
:103E400001D1FDF7E2FA002054E72DE9F0410446E4
:103E500000273F2C02D13E20BDE8F081FF2C0BD182
:103E6000FDF7DCF80746D448006890F8376038461C
:103E7000FDF7D8F83046EFE7FDF7D0F80746CF4812
:103E800050F8245025B93846FDF7CCF84320E3E735
:103E9000012D04D13846FDF7C5F83D20DCE73F2071
:103EA00085F837003846FDF7BDF80020D4E72DE946
:103EB000F04706460F4614464FF00008C048007809
:103EC000002804DD112020700020BDE8F087FDF7F8
:103ED000A5F88046FF2E03D1B748006890F83260FD
:103EE000B64850F8265035B94046FDF79BF84320B8
:103EF00020700020E9E7012D06D14046FDF792F839
:103F0000432020700020E0E705F14C013846FDF722
:103F1000CBF981464046FDF785F8002020704846E1
:103F2000D3E72DE9F0470646884614464FF00009CE
:103F3000A3480078002803DD12202070BDE8F08738
:103F4000FDF76CF88146FF2E03D19B48006890F87E
:103F500032609A4850F826502DB94846FDF762F86D
:103F600043202070EAE7012D05D14846FDF75AF8B5
:103F700043202070E2E74046FDF7D6F907460F2FB1
:103F800005DD4846FDF74EF841202070D6E7414652
:103F900005F14C00FDF788F94846FDF743F800208D
:103FA000207000BFCAE770B505460026FDF736F859
:103FB0000646824850F8254024B93046FDF732F8CD
:103FC000462070BD012C04D13046FDF72BF843206C
:103FD000F7E794F8300010F0080F2FD014F8300FE6
:103FE00020F00800207014F8300910BBE08DE0B913
:103FF00004F13404A0787349097840EA010071495A
:10400000087020787049085C617840EA010014F873
:1040100034196D4A50543046FDF704F8654800786D
:10402000012809D1FDF7F1F906E03046FCF7FAFF67
:1040300002E03046FCF7F6FF0020C2E73046FCF70E
:10404000F1FF4420BDE72DE9F04707460D464FF04C
:10405000000A002028606860FCF7E0FF8246FF2F1E
:1040600003D15548006890F83270544850F8274002
:104070002CB95046FCF7D6FF4320BDE8F087012C51
:1040800004D15046FCF7CEFF4320F6E7208A10F01B
:10409000010F04D15046FCF7C5FF4520EDE700268F
:1040A000D4F80C90D4F808805046FCF7BBFF00E031
:1040B000761C58F8041B0029FAD0B0002860A9EB40
:1040C0000600800068600020D7E72DE9F041054632
:1040D0004FF00008FCF7A2FF8046FF2D05D13648BF
:1040E000006890F83250012608E03348006890F8E4
:1040F0003200A84201D1012600E000262F4850F8E6
:1041000025402CB94046FCF78DFF4820BDE8F081E2
:10411000012C04D14046FCF785FF4320F6E794F8D4
:1041200034702948C05D94F8351088432649C85535
:104130000846C05D30B994F83610224800788843AC
:104140002049087094F8300040F0080084F83000EE
:104150004046FCF767FF012E01D1FDF756F900201C
:10416000D4E72DE9F04105460E460027FCF756FF3F
:104170000746FF2D03D11048006890F832500F48D1
:1041800050F825402CB93846FCF74CFF2920BDE8F3
:10419000F081012C04D13846FCF744FF4320F6E7B8
:1041A0005C2221463046FDF755FE3846FCF73AFFC3
:1041B0000020ECE73200002038000020400B0020F7
:1041C00025000020290000202A00002070B50546A7
:1041D00000266A480078002800DD70BD002D23DD30
:1041E000FCF71CFF06466648006890F834406548B6
:1041F000005D6349096891F83510884361490855A5
:104200000846005D40B95E48006890F836105E4888
:10421000007888435C49087059480068C585304675
:10422000FCF700FFFDF7F1F800BFD6E72DE9F047F6
:1042300006460F469046994650480078002802DD11
:104240005520BDE8F08709F10500642148434FF48B
:104250007A71B0FBF1F14FF461607043C7EB071264
:1042600000EB8200404400EBC00202EB001001EBC7
:104270008004250CA4B22046FFF7A8FF09E04FF404
:104280000040FFF7A3FF4FF40040FFF79FFF681EB9
:1042900085B2002DF3DC0020D3E770B5054600267B
:1042A0003F2D01DB2A2070BDFCF7B8FE06463748DB
:1042B00050F8254024B93046FCF7B4FE4320F2E71D
:1042C000012C04D13046FCF7ADFE4320EBE7E08D36
:1042D00020B93046FCF7A6FE5020E4E70020E08538
:1042E00094F8300010F0370F09D014F8300F20F098
:1042F0003700207001206070A4F1300402E000203B
:1043000084F8310094F8300010F0080F18D104F14F
:104310003404A0781C49097840EA01001A49087061
:1043200020781849085C617840EA010014F83419D3
:10433000144A50543046FCF775FEFDF766F802E06B
:104340003046FCF76FFE0020ADE770B50025FCF7A6
:1043500065FE05460E4804682846FCF763FE2046C5
:1043600070BD70B504460025FCF758FE05460848A8
:1043700004602846FCF756FE70BD000025000020B2
:10438000380000202A00002029000020400B0020D7
:104390005400002010B5FF480068FFF7AFFA10BDC9
:1043A000FD48006808B900207047FB480168FA4AD8
:1043B000C86810600020C8600861F8480088401C88
:1043C000F64A1080F6480088401EF54A10800846DC
:1043D000EAE708B56A460021EE480068FFF7D9F918
:1043E00008BD2DE9FF5F8046894692469B46DDE980
:1043F0000F65EC480078002805DD8B202870002030
:1044000004B0BDE8F09FFFF7E4FFFFF7C9FF0446E3
:104410002CB9FFF7BFFF862028700020F0E70120AD
:1044200084F83100C4F81880C4F81C9084F830A0D7
:10443000C4F804B00E98A060BEB13046FCF774FF1B
:104440000746102F05DA314604F12000FCF72CFF57
:104450000BE0232084F820000021212001558C202E
:104460002870FFF797FF2046CAE7FFF793FF002069
:1044700028702046C4E7002180F8311080F8301001
:10448000C1614161416081603F2180F820100022BC
:1044900021210A5400210161BF490968C160BE4958
:1044A0000860BE490988491EBC4A1180BC49098878
:1044B000491CBB4A1180704730B5456905F00704B7
:1044C000B94D05EBC4031D68854205D1C16819606B
:1044D00039B100250D6104E00169C268CA6002B10A
:1044E0001161012580F831500025C56005619D8866
:1044F0006D1E9D8030BD70B505460C462878642839
:1045000003D089202070002070BDA64800780028C4
:1045100003DD8B2020700020F6E7FFF75AFF95F8A7
:104520003100D8B101280FD002280ED003281BD1AA
:104530002846FFF7C1FF2846FFF79DFFFFF72AFF38
:10454000002020700120DFE700BF2846FFF793FF1F
:10455000FFF720FF002020700120D5E7FFF71AFFAA
:10456000872020700020CFE7FFF714FF8D202070F8
:104570000020C9E72DE9F04105460E46144628788B
:10458000642804D0892020700020BDE8F08185488F
:104590000078002803DD112020700020F5E7FFF7E8
:1045A00018FF95F8310098B1012804D0022803D0F3
:1045B000032813D100BF00BF05F120013046FCF7EE
:1045C00073FE0746FFF7E6FE002020703846DCE762
:1045D000FFF7E0FE872020700020D6E7FFF7DAFE25
:1045E0008D2020700020D0E770B504460D4620785D
:1045F000642803D089202870002070BD69480078A5
:10460000002803DD8B2028700020F6E7FFF7E1FE8D
:1046100094F8310070B301280DD0022825D003286A
:104620002ED1624960690968461AFFF7B3FE00207F
:1046300028703046E1E794F8300001280CD00228B9
:1046400009D1A06908B9E66900E0A669FFF7A2FEF2
:104650000020287006E000BFA669FFF79BFE00203F
:10466000287000BF00BF3046C7E7FFF793FE002069
:104670002870C2E7FFF78EFE872028700020BCE775
:10468000FFF788FE8D2028700020B6E770B505463C
:104690000C462878642803D089202070002070BD43
:1046A00040480078002803DD8B2020700020F6E7CA
:1046B000FFF78FFE95F8316036B1012E05D0022E3E
:1046C00004D0032E06D102E000BF00BF00BF0020CF
:1046D000207002E08D20207000BF00BFFFF75AFE5F
:1046E0003046DCE770B50C46032580F83150012CCC
:1046F00005D12E4EC5693668354445610CE08569A3
:104700002DB92A4EC56936683544456104E0274E07
:104710008569366835444561456905F00703224DD2
:1047200005EBC3010D682DB908600025C5600125A2
:104730008D8006E00A680860C26010618D886D1C7B
:104740008D800025056170BD70B505460C46287842
:10475000642803D089202070002070BD11480078A3
:10476000002803DD8B2020700020F6E7FFF731FEE4
:1047700095F8310068B3012820D002281FD0032803
:104780002DD12846FFF798FE00212846FFF7AAFF03
:104790000EE0000060000020680000205A000020A9
:1047A00058000020250000207C1A00205C0000201A
:1047B000FFF7F0FD002020700120CEE700BF0021B0
:1047C0002846FFF78FFFFFF7E5FD0020207001204E
:1047D000C3E7FFF7DFFD872020700020BDE7FFF76C
:1047E000D9FD8D2020700020B7E72DE9F041054666
:1047F0000F4690461C462878642804D089202070F3
:104800000020BDE8F0817D480078002803DD8B2082
:1048100020700020F5E7FFF7DCFD95F8310090B33C
:1048200001282AD0022827D0032833D12846FFF7B1
:1048300043FE00202070B7B1032F02D0042F13D104
:1048400008E06E681EB12846A968B04701E08F20D5
:1048500020700CE06E681EB141462846B04701E06A
:104860008F20207003E002E08420207000BF00BF92
:10487000FFF790FD0120C4E700BFFFF78BFD8E20FE
:1048800020700120BDE7FFE7FFF784FD872020703F
:104890000020B6E7FFF77EFD8D2020700020B0E7F6
:1048A00010B557480068FFF729F80446204610BDA8
:1048B00008B500BF6A46002151480068FEF769FF4D
:1048C000FFF787FD4F480068401C4E4908600846C6
:1048D000006800F007064C4800EBC608D8F8004016
:1048E0001AE0E768474960690968884213D165683A
:1048F00015B12046A168A8472046FFF7DDFD94F8D2
:104900003000022804D101212046FFF7EBFE02E02F
:10491000022084F831003C46002CE2D1FFF73AFD3A
:10492000C8E700B587B00323002280213748CDE9CE
:104930000323CDE901014FF6FD7300933D2300F5FC
:10494000FE7200213248FFF776F906AA31A13D2018
:10495000FFF7E7FA07B000BDF8B54FF450713148E2
:10496000FCF7C6FF40212848FCF7C2FF2D4C04F19C
:10497000340600250FE064202070002084F8310008
:10498000E6603F2084F820000021212001553434C6
:104990003436681C85B20F2DEDDB642020700020BA
:1049A00084F83100E0603F2084F8200000212120BD
:1049B00001550020134908601B49088010201B493D
:1049C000088018481A4908600120FEF74DFE194971
:1049D00008600020FEF748FE094908606A4616A1F3
:1049E00014480068FCF7AAFC6A4616A1044800684F
:1049F000FCF7A4FCFFF795FFF8BD000025000020A0
:104A0000640000205C0000207C1A00207C1800203C
:104A1000B148000875432F4F532D494920546D72FA
:104A2000000000003C1500205A0000205800002023
:104A300068000020600000204F532D546D724C6FB1
:104A4000636B00004F532D546D7253696700000073
:104A5000FA49096801F03801F84A116011460968FD
:104A6000014311607047F549096821F00801F34AD4
:104A7000116011460968014311607047EF490968E8
:104A800021F01001ED4A11601146096801431160DF
:104A90007047EB48E9494860EA4848607047E74892
:104AA000006940F08000E549086170470420E3494F
:104AB000C96801F00101012901D101200EE0DF499F
:104AC000C96811F0040F01D0022007E0DB49C96872
:104AD00011F0100F01D0032000E0042070470020E7
:104AE000FF2000E0401E0028FCD1704770B504464E
:104AF0000425FFF7DBFF054605E0FFF7F0FFFFF7B2
:104B0000D5FF0546641E012D01D1002CF5D104B955
:104B10000525284670BD70B50546042440F6FF7093
:104B2000FFF7E4FF0446042C19D1C448006940F0A3
:104B30000200C249086108464561006940F0400032
:104B4000086140F6FF70FFF7D1FF0446012C06D044
:104B5000BA48006941F6FD710840B849086120462D
:104B600070BD10B5042440F6FF70FFF7BFFF044688
:104B7000042C18D1B148006940F00400AF49086125
:104B80000846006940F04000086140F6FF70FFF7FA
:104B9000ADFF0446012C06D0A848006941F6FB7120
:104BA0000840A6490861204610BD10B5042440F60F
:104BB000FF70FFF79BFF0446042C3CD1A0489F499F
:104BC0008860A04888600846006940F020000861BD
:104BD0000846006940F04000086140F6FF70FFF7AA
:104BE00085FF0446042C1DD19448006941F6DF710D
:104BF0000840924908610846006940F010000861C9
:104C0000A520914908804FF00F00FFF76FFF044681
:104C1000012C10D08948006941F6EF71084087499E
:104C2000086108E0012C06D08448006941F6EF7164
:104C3000084082490861204610BD70B505460E4601
:104C400004240F20FFF752FF0446042C25D17B4893
:104C5000006940F00100794908612E800F20FFF7BC
:104C600045FF0446042C0FD1300C68800F20FFF75D
:104C70003DFF0446012C10D07048006941F6FE71DA
:104C800008406E49086108E0012C06D06B480069B5
:104C900041F6FE71084069490861204670BD70B553
:104CA00005460E4604240F20FFF720FF0446042C7F
:104CB00013D16248006940F00100604908612E800C
:104CC0000F20FFF713FF0446012C06D05B48006954
:104CD00041F6FE71084059490861204670BD70B523
:104CE00005460E4604240F20FFF700FF0446042C5F
:104CF00017D1534851498860524888600846006976
:104D000040F0100008612E800F20FFF7EFFE0446F0
:104D1000012C06D04948006941F6EF710840474927
:104D20000861204670BD2DE9F04704464FF6FF7636
:104D30003746B046B1460425E443E6B2C4F307273C
:104D4000C4F307484FEA14690F20FFF7CFFE05466A
:104D5000042D3ED13A48394988603A48886008466F
:104D6000006940F010000861FF2E06D03748068029
:104D70004FF00F00FFF7BAFE0546042D08D1FF2FB4
:104D800006D0334807804FF00F00FFF7AFFE05460F
:104D9000042D09D1B8F1FF0F06D02E48A0F80C88D9
:104DA0000F20FFF7A3FE0546042D09D1B9F1FF0F2F
:104DB00006D02848A0F80E980F20FFF797FE05466A
:104DC000012D06D01D48006941F6EF7108401B49CE
:104DD00008612846BDE8F08770B50546042440F612
:104DE000FF70FFF783FE0446042C50D1144813498A
:104DF0008860144888600846006940F02000086117
:104E00000846006940F04000086140F6FF70FFF777
:104E10006DFE0446042C31D10848006941F6DF716B
:104E20000840064908610846006940F01000086122
:104E300095B100200449088011E0000000200240E4
:104E400023016745AB89EFCD00F8FF1F08F8FF1F6E
:104E50000AF8FF1F00F0FF1FA5204549088040F613
:104E6000FF70FFF743FE0446012C10D04148006953
:104E700041F6EF7108403F49086108E0012C06D077
:104E80003C48006941F6DF7108403A490861204614
:104E900070BD2DE9F04107460D46164604243648FC
:104EA00034498860354888600F20FFF71FFE0446AC
:104EB000042C1AD12F48006940F010002D490861D8
:104EC00047EA0500304340F0F8002D4908804FF0D4
:104ED0000F00FFF70BFE0446012C06D025480069A1
:104EE00041F6EF710840234908612046BDE8F08192
:104EF0002048C069800870471E48006A704700203B
:104F00001C49C96911F0020F01D0012000E0002006
:104F1000704700201749096811F0200F01D00120C7
:104F200000E00020704729B1124A12690243114B78
:104F30001A6104E00F4A126982430E4B1A617047EE
:104F400001460020012908D10A4AD26912F0010F56
:104F500001D0012008E0002006E0064AD2680A429B
:104F600001D0012000E0002070470249C86070476E
:104F700000F8FF1F0020024023016745AB89EFCDF9
:104F800002F8FF1F10B50446C449601A8C422FD0A6
:104F900009DCC348201810D0B0F5806F16D0B0F5EA
:104FA000006F4AD11BE0B0F5806F2AD0B0F5006FDA
:104FB00030D0B0F5406F40D135E00121042000F041
:104FC0008AFD0021042000F086FD37E00121082041
:104FD00000F081FD0021082000F07DFD2EE0012180
:104FE000102000F078FD0021102000F074FD25E075
:104FF0000121202000F06FFD0021202000F06BFD3A
:105000001CE00121402000F066FD0021402000F05E
:1050100062FD13E00121802000F05DFD0021802071
:1050200000F059FD0AE00121080200F054FD0021C2
:105030004FF4807000F04FFD00E000BF00BF10BDD6
:1050400010B50121084600F046FD0021012000F0C6
:1050500042FD10BD2DE9F04102460025002600204A
:1050600000230024002791F803C00CF00F0591F8ED
:1050700003C01CF0100F03D091F802C04CEA0505E4
:10508000B1F800C01CF0FF0F30D0146800202AE0F7
:105090004FF0010C0CFA00F3B1F800C00CEA030663
:1050A0009E421FD183004FF00F0C0CFA03F7BC4354
:1050B00005FA03FC4CEA040491F803C0BCF1280F84
:1050C00005D14FF0010C0CFA00FCC2F814C091F8A5
:1050D00003C0BCF1480F05D14FF0010C0CFA00FCE5
:1050E000C2F810C0401C0828D2D31460B1F800C028
:1050F000BCF1FF0F34DD546800202EE000F1080CF5
:105100004FF0010808FA0CF3B1F800C00CEA0306EE
:105110009E4221D183004FF00F0C0CFA03F7BC43E1
:1051200005FA03FC4CEA040491F803C0BCF1280F13
:1051300005D100F1080C08FA0CF8C2F8148091F8B7
:1051400003C0BCF1480F07D100F1080C4FF0010873
:1051500008FA0CF8C2F81080401C0828CED354601E
:10516000BDE8F0814FF6FF710180022181700421BA
:10517000C17070470246002093680B4201D00120A5
:1051800000E0002070470146886880B27047024600
:105190000020D3680B4201D0012000E000207047BE
:1051A0000146C86880B2704701617047416170472D
:1051B0000AB1016100E041617047C16070474FF47E
:1051C00080320A43826181618261826982697047AB
:1051D00002460020334B18684FF68073184040EAAF
:1051E000021008432F4B186070472F49C861704761
:1051F000F0B50A460023002400210025294E7168DD
:10520000C0F3034583B200F44016B6F5401F08D141
:1052100021F07061234E766826F07066214F7E6023
:1052200012E000F48016B6F5801F06D1032606FAB8
:1052300005F4A14341F0706106E0460D360103FA22
:1052400006F6B14341F0706122B1460D360103FA12
:1052500006F63143134E7160F0BD30B500228B0766
:105260001C0F0F2303FA04F20E4B08338C1053F873
:10527000243093430B4C08348D1044F825302346DA
:105280008C1053F824308C07240F00FA04F42343C5
:10529000044C08348D1044F8253030BD0014014012
:1052A00000F8FEBF0000014000002042704700BF30
:1052B000FEE700BFFEE700BFFEE700BFFEE7704766
:1052C0007047704710B5FBF7A9FE044626480078E2
:1052D000401C254908702046FBF7A4FEFCF7ABFCF8
:1052E000FCF7B5FB10BD70477047704770477047BB
:1052F00070477047704770477047704770477047F6
:1053000070477047704770477047704770477047E5
:10531000704770477047704710B50121134801F07E
:1053200032FA10BD7047704770477047704770473A
:1053300070477047704770477047704770477047B5
:1053400070477047704770477047704770477047A5
:105350007047704770477047704770477047704795
:10536000704770477047704725000020002C0140AF
:105370000020411EF84A11606FF07042F749C1F8F1
:1053800084204FF0FF314FF0E022C2F880126FF01E
:105390007042F3490A6000BF04E00022F14941F87D
:1053A0002020401C0F28F8D3704700204FF02061C8
:1053B000ED4A116001464FF0E022C2F8081DEB49AA
:1053C000EB4A1160014602F10402116002F104028D
:1053D000116000BF05E00022E5490C3141F82020B2
:1053E000401C0328F7D30021E24A11604FF0FF313F
:1053F0004FF0E022C2F8281DDF4A11604FF0E02292
:10540000C2F8301D7047D9490143D94A116070472D
:10541000F0B500210022002300250F24C678EEB34A
:10542000D34E366806F4E066C6F5E0664FEA16210C
:10543000C1F1040524FA01F4467806FA05F18678EC
:1054400006EA040646EA01014FEA011106784FEA2E
:1054500086764FEAD66601FA06F1C24E07784FEA21
:10546000A70756F8272006784FEA86764FEAD667D0
:105470004FF0FF0606FA07F322EA030201EA0301EE
:1054800042EA0102B74E07784FEAA70746F82720FD
:10549000067806F01F074FF0010600E00BE006FA61
:1054A00007F607784FEA67174FF0E02C0CEB8707F9
:1054B000C7F800610BE0067806F01F070126BE4022
:1054C000A54F90F800C04FEA6C1C47F82C60F0BD67
:1054D0000021017041708170C170704710B5FBF7F9
:1054E0003AF810BD10B5FBF734F810BD10B5FBF756
:1054F00037F810BD10B5FBF735F810BD10B50446F0
:105500002001FBF734F810BD10B5FBF733F810BDE0
:1055100095480068C0F30930704710B50146002077
:10552000002201F01F04012303FA04F28A4B8033A6
:105530004C1153F824301340934201D1012000E074
:10554000002010BD8D490860704700F01F02012146
:105550009140834A121F431142F82310704782483A
:105560000068C0F30900704710B501460020002212
:1055700001F01F04012303FA04F2794B7C334C1130
:1055800053F824301340934201D1012000E0002061
:1055900010BD7B48006870477A4A0A4002437A4B44
:1055A0001A6070477148001D7149086070476F4864
:1055B000401C6F490860704741B1744A126842EA62
:1055C00000024FF0E023C3F8102D07E06F4A126885
:1055D00022EA00024FF0E023C3F8102D704710B507
:1055E000002200F01F04012303FA04F241B1614BD1
:1055F0001B6843EA02034FF0E024C4F8243D07E0AF
:105600005C4B1B6823EA02034FF0E024C4F8243DFE
:1056100010BDF0B503460C4615460020FF220026BB
:105620000021534F3F6807F4E067C7F5E0674FEA92
:105630001721C1F1040022FA01F204FA00F105EA8F
:10564000020747EA01014FEA011103F0C0004FEAE7
:105650009010C3F301224FEAC20701FA07F14FEAA3
:10566000C20C4FF0FF0707FA0CF6494F57F82070AD
:1056700027EA0607DFF818C14CF82070674657F88C
:10568000207047EA01074CF82070F0BD10B50246C3
:10569000002000230021910A01F00F01012404FAE7
:1056A00001F1344C246804EA01038B4201D101204A
:1056B00000E0002010BD002100F01F012A4A1268FE
:1056C0004FF0010303FA01F342EA03024FF0E02333
:1056D000C3F8042D704710B5002100F01F01224AC5
:1056E0001268A1F101034FF0010404FA03F442EA45
:1056F00004024FF0E023C3F8042D10BD10B502469C
:10570000002000230021C2F38331012404FA01F1B7
:10571000184C246804EA01038B4201D1012000E007
:10572000002010BD30B50146002000220023C1F347
:105730008142C1F3015312B90F4C206830E0012AB5
:105740002CD1144C24684FEAC30524FA05F0022B2F
:1057500022D000F00F0023E080E100E000E100E053
:1057600084E200E000E400E004ED00E00000FA055F
:105770000CED00E024ED00E02CED00E000EF00E097
:1057800000ED00E080FFFF1F08ED00E010ED00E0FD
:1057900018ED00E028ED00E0C0B201E0074C206801
:1057A00030BD014600200022C1F3805212B9044BE3
:1057B000186801E0034B18687047000030ED00E006
:1057C00034ED00E038ED00E0DE48006840F0010014
:1057D000DC49086008464068DB490840D949486010
:1057E00008460068D9490840D6490860084600685C
:1057F00020F4802008600846406820F4FE004860DD
:10580000002088607047CF49096821F48031CD4A73
:1058100011601146096821F480211160B0F5803FC4
:1058200003D0B0F5802F0ED106E0C649096841F4D7
:105830008031C44A116007E0C249096841F4A021DF
:10584000C04A116000E000BF00BF704710B50146BC
:105850000022002300204A11012A02D1B94C2368FA
:1058600006E0022A02D1B74C236A01E0B54C636A14
:1058700001F01F02012494401C4201D0012000E0ED
:10588000002010BD10B5002400BF3120FFF7DEFF5F
:10589000AF490870AF480068401CAE490860AC488A
:1058A000007828B908460068A0F58071FF39ECD16E
:1058B0003120FFF7CBFF08B1012400E0002420468F
:1058C00010BD014600209F4A106820F0F80040EA11
:1058D000C10010607047A049086070470246002070
:1058E000984B586820F47C1042EA01031843954B0A
:1058F0005860704798490866704701460020914AF1
:10590000506820F003000843506070478D4840689D
:1059100000F00C007047014600208A4A506820F0D1
:10592000F00008435060704701460020854A5068E7
:1059300020F4E06008435060704701460020814A2F
:10594000506820F4605040EAC1005060704729B1AF
:105950007C4A527A02437B4B5A7206E0794A527A69
:10596000C343DBB21A40774B5A7270477B490860D9
:10597000704701460020734A506820F440400843B5
:10598000506070470021764A11706E4A82F82010EC
:10599000012802D0042808D103E00121704A1170C7
:1059A00004E005216E4A117000E000BF00BF70479F
:1059B0006C49086070476349096A0143614A116292
:1059C000704769490860704730B500210022002403
:1059D00000235C4D6D6805F00C0121B1042905D050
:1059E000082923D105E0614D056022E05F4D056087
:1059F0001FE0544D6D6805F47012022505EB9242CC
:105A0000504D6D6805F480341CB9594D55430560FF
:105A10000BE04C4D6D6815F4003F03D0544D5543D9
:105A2000056002E0514D5543056002E04F4D0560B1
:105A300000BF00BF434D6D6805F0F00109094D4DF1
:105A40006B5C0568DD4045603E4D6D6805F4E061C6
:105A5000090A484D6B5C4568DD408560394D6D68CD
:105A600005F46051C90A434D6B5C4568DD40C56073
:105A7000344D6D6805F44041890B3F4D6B5CC56842
:105A8000B5FBF3F5056130BD29B12E4A52690243D9
:105A90002C4B5A6104E02B4A52698243294B5A61CC
:105AA000704729B1274A92690243264B9A6104E064
:105AB000244A92698243234B9A61704729B1214A53
:105AC000D26902431F4BDA6104E01E4AD269824365
:105AD0001C4BDA61704729B11A4AD2680243194B4C
